:100000000C94A9000C94D1000C94D1000C94D10054
:100010000C94D1000C94D1000C94D1000C94F517E1
:100020000C94D1000C94D1000C94D1000C94D1000C
:100030000C94D1000C94D1000C94D1000C94D100FC
:100040000C947E100C94D1000C9406140C9437146C
:100050000C94D1000C94D1000C94D1000C94D100DC
:100060000C94D1000C94D100C003D003E303F70338
:1000700013044104BA034B046504850412061206F6
:100080001206120612061206A504B205E1051206B2
:1000900012061206120612061206120612061206A0
:1000A00012061206120612061206B804E3043305FD
:1000B000530575051206B804E3041206120612066B
:1000C000120612061206120612067505120612060E
:1000D0001206120612061206120612061206120660
:1000E00012061206120612061206AE0500000008DD
:1000F00000020100000304070000000000000000EF
:1001000001020408102040800102040810200102AE
:10011000040810200404040404040404020202027B
:100120000202030303030303000000002300260070
:10013000290000000000250028002B00000000001E
:10014000240027002A000200F2066F1073106714C3
:10015000F01411241FBECFEFD8E0DEBFCDBF12E0F8
:10016000A0E0B1E0E2E7F7E302C005900D92A2340F
:10017000B107D9F726E0A2E4B2E001C01D92AA3E81
:10018000B207E1F711E0C2E5D1E004C02297FE0119
:100190000E943E1AC834D107C9F70E9452180C9425
:1001A000B71B0C940000CF92DF92EF92FF920F9357
:1001B0001F93E82FF92F05C00150110921093109BA
:1001C00061F1908196239417B9F305C0015011098C
:1001D0002109310911F1908196239413F7CFC12C95
:1001E000D12CE12CF12C0AC08FEFC81AD80AE80AEA
:1001F000F80A0C151D052E053F0579F08081862330
:10020000841791F36C2D7D2D8E2D9F2D1F910F91B5
:10021000FF90EF90DF90CF90089560E070E080E075
:1002200090E01F910F91FF90EF90DF90CF90089595
:100230000C940000109242020895BC0182E094E008
:100240000C94D60ECF93C2E060E08C2F0E940A126D
:10025000CF5FC431C9F7CF910895CF93DF93EC01FD
:10026000682F6F7782E094E00E94DA0EBE01660F7D
:10027000672F661F770B71956F7782E094E0DF91AF
:10028000CF910C94DA0ECF92DF92EF92FF926B0136
:100290007C016F7782E094E00E94DA0ED701C601FC
:1002A00027E0B695A795979587952A95D1F7682F5A
:1002B0006F7782E094E00E94DA0ED701C6013EE03B
:1002C000B695A795979587953A95D1F7682F6F774B
:1002D00082E094E00E94DA0ED701C60145E1B695AE
:1002E000A795979587954A95D1F7682F6F7782E004
:1002F00094E0FF90EF90DF90CF900C94DA0E43E4FF
:1003000052E0FA019E2F941B981778F4DB011196A6
:100310009C9111972C9130E0B0E89B9F200D311DEE
:10032000112421936E5F7F4FEDCF0895CF93DF931C
:10033000D82FC62F60EF82E094E00E94DA0E68E0CA
:1003400082E094E00E94DA0E6D2F82E094E00E9439
:10035000DA0E6C2F82E094E00E94DA0E65E582E00E
:1003600094E00E94DA0E67EF82E094E0DF91CF9193
:100370000C94DA0ECF93DF93D82FC62F60EF82E074
:1003800094E00E94DA0E68E082E094E00E94DA0EC7
:100390006D2F82E094E00E94DA0E6C2F82E094E0F0
:1003A0000E94DA0E6AE282E094E00E94DA0E67EFC1
:1003B00082E094E0DF91CF910C94DA0E0F931F93BB
:1003C000CF93DF931F92CDB7DEB7082F162F60EFC4
:1003D00082E094E049830E94DA0E68E082E094E0D3
:1003E0000E94DA0E602F82E094E00E94DA0E612F04
:1003F00082E094E00E94DA0E65E582E094E00E94DB
:10040000DA0E4981642F82E094E00E94DA0E67EFF1
:1004100082E094E00F90DF91CF911F910F910C94A7
:10042000DA0E0F931F93CF93DF93082F162FEA0155
:1004300060EF82E094E00E94DA0E68E082E094E0EF
:100440000E94DA0E602F82E094E00E94DA0E612FA3
:1004500082E094E00E94DA0E65E582E094E00E947A
:10046000DA0ECE010E942D0167EF82E094E0DF9169
:10047000CF911F910F910C94DA0E0F931F93CF938E
:10048000DF9300D000D0CDB7DEB7082F162F60EF76
:1004900082E094E029833A834B835C830E94DA0EE6
:1004A00068E082E094E00E94DA0E602F82E094E03F
:1004B0000E94DA0E612F82E094E00E94DA0E65E578
:1004C00082E094E00E94DA0E29813A814B815C81BE
:1004D000CA01B9010E94430167EF82E094E00F90E6
:1004E0000F900F900F90DF91CF911F910F910C946F
:1004F000DA0EAF92BF92CF92DF92EF92FF920F93FC
:100500001F93CF93DF9300D000D0CDB7DEB7A82ED6
:10051000B62E6701780160EF82E094E029833A8388
:100520004B835C830E94DA0E68E082E094E00E94D4
:10053000DA0E6A2D82E094E00E94DA0E6B2D82E0E2
:1005400094E00E94DA0E65E582E094E00E94DA0E03
:1005500029813A814B815C81CA01B9010E94430122
:10056000C701B6010E94430167EF82E094E00F905B
:100570000F900F900F90DF91CF911F910F91FF90EF
:10058000EF90DF90CF90BF90AF900C94DA0EEF9287
:10059000FF920F931F93CF93DF9300D0CDB7DEB7B9
:1005A000F82E062F142F60EF82E094E029833A831F
:1005B0000E94DA0E68E082E094E00E94DA0E6F2D6D
:1005C00082E094E00E94DA0E602F82E094E00E94C4
:1005D000DA0E65E582E094E00E94DA0E612F82E097
:1005E00094E00E94DA0E2981022FE22E3A81F32E46
:1005F0008E2D801B811740F4F70161917F0182E00D
:1006000094E00E94DA0EF4CF67EF82E094E00F905E
:100610000F90DF91CF911F910F91FF90EF900C946D
:10062000DA0EEF92FF920F931F93CF93DF9300D0D8
:10063000CDB7DEB7F82E062F142F60EF82E094E0DE
:1006400029833A830E94DA0E68E082E094E00E94F7
:10065000DA0E6F2D82E094E00E94DA0E602F82E0C5
:1006600094E00E94DA0E65E582E094E00E94DA0EE2
:10067000612F82E094E00E94DA0E2981022FE22E9F
:100680003A81F32E8E2D801B811738F4F70181916A
:100690007F0190E00E942D01F5CF67EF82E094E0AA
:1006A0000F900F90DF91CF911F910F91FF90EF90DE
:1006B0000C94DA0E0F931F93CF93DF93082F162F0E
:1006C000EA0160EF82E094E00E94DA0E68E082E0E6
:1006D00094E00E94DA0E602F82E094E00E94DA0E2D
:1006E000612F82E094E00E94DA0E65E582E094E0FA
:1006F0000E94DA0E688182E094E00E94DA0E69813D
:1007000082E094E00E94DA0E6A8182E094E00E9426
:10071000DA0E67EF82E094E0DF91CF911F910F91A5
:100720000C94DA0EBF92CF92DF92EF92FF920F936A
:100730001F93CF93DF93CDB7DEB72A970FB6F89408
:10074000DEBF0FBECDBFDA01883009F06BC2623068
:1007500008F468C2BC9011969C9111976250092FC1
:1007600010E00234110508F05DC20C5C1F4FF80167
:100770000C943C1A611102C066E04CC266E04FC2A4
:10078000613061F412961C9160E0812F0E940A1280
:10079000812F0E947912482F60E00DC260E03FC2B5
:1007A000623079F412961C91129713960C9161E0C5
:1007B000812F0E940A12602F812F0E94431261E054
:1007C00029C261E02CC2613081F412961C9160E074
:1007D0008EE0810F0E940A12812F0E946511AC01E8
:1007E00062E08B2D0E9411021DC262E018C26330CC
:1007F000C1F41296FC90129714968C91149713964C
:100800000C9110E0F0E88F9F000D111D112461E0A4
:100810008F2D0E940A12B8018F2D0E94821163E071
:10082000F9C163E0FCC1653051F51296FC90129756
:1008300014968C91149713960C91139710E020E85E
:10084000829F000D111D112416968C9116971596F6
:100850002C91C22ED12C90E8899FC00CD11C112460
:1008600061E08F2D0E940A129601442737FD4095C2
:10087000542FB8018F2D0E94B11564E0CBC164E004
:10088000CEC1613031F412968C910E94E01765E080
:10089000C1C165E0C4C16230B1F413964C911397A5
:1008A00012966C918FE693E00E94D3069B01AC01F7
:1008B000A4E6B0E00E94421A9B01AC0167E08B2DD8
:1008C0000E943D02AFC167E0AAC16130E1F4129617
:1008D0006C9170E0CE0101960E947408892B39F466
:1008E00085E58D838B818E8389818F8304C08AEA1D
:1008F0008D831F821E82AE014B5F5F4F68E08B2DA0
:100900000E945A038FC168E08AC16530E1F421E09A
:1009100016968C911697811101C020E015968C9146
:10092000159714964C91149750E0E0E88E9F400D77
:10093000511D112413966C91139712968C910E945D
:100940006E0869E067C169E06AC161110FC014E710
:10095000E12E19ECF12E03E311E021E030E040E05C
:1009600050E060E18B2D0E9479025CC160E157C1CB
:10097000663009F0F1C017961C91179715968C9167
:10098000159714966C911497462F50E0F0E88F9FBE
:10099000400D511D112463E4E62E62E0F62E012F76
:1009A00016962C91169713966C91139712968C911C
:1009B00098870E9441099885913209F0C5C0970136
:1009C000412F61E2BDC0663008F4C6C012961C918A
:1009D00012971396DC90139715968C911597149691
:1009E0004C91149750E020E8829F400D511D112436
:1009F00016962C91169717960C9117977D0188E003
:100A0000E80EF11C9232F1F470E0A02FB0E01396E2
:100A1000AA0FBB1F6A177B0709F09EC0B701802F82
:100A20002A87488759870E947F0183E4E82E82E065
:100A3000F82E2A85488559856D2D812F0E949009B1
:100A400062E2E8C0983209F087C070E0A02FB0E001
:100A500016966A177B0709F07FC06D2D812F0E94C3
:100A6000900968E2D7C06630E1F415968C9115972D
:100A700014964C91149750E090E8899F400D511DB9
:100A8000112417960C91179716962C91169713967A
:100A90006C91139712968C910E94D209482F63E2B1
:100AA0008AC063E2BCC06730F1F415968C9115974B
:100AB00014964C91149750E0E0E88E9F400D511D24
:100AC00011241896EC90189717960C911797169674
:100AD0002C91169713966C91139712968C910E94F5
:100AE000710A64E297C064E29AC06730A9F518966B
:100AF0001C91189715968C91159714966C911497D4
:100B0000462F50E0F0E88F9F400D511D112403E463
:100B1000C02E02E0D02EE12E17960C911797169654
:100B20002C91169713966C91139712968C91988727
:100B30000E94140A9885953239F49601412F65E296
:100B40008B2D0E9411036EC023E432E0412F692FE8
:100B50008B2D0E94C70266C0692F61C00E942201CE
:100B600061E458C0633059F51296FC9012971396C1
:100B70000C91139714961C9160E08F2D0E940A121D
:100B800060E0802F0E940A1260E0812F0E940A120A
:100B90008F2D0E947912F82E802F0E947912082F33
:100BA000812F0E947912402F22E0F29E400D1124E5
:100BB000440F480F61E18B2D0E94DE0133C061E1DB
:100BC0002EC0643059F51296EC9012971396FC9053
:100BD000139714960C91149715961C9161E08E2D25
:100BE0000E940A1261E08F2D0E940A1261E0802F9C
:100BF0000E940A12612F64708E2D0E944312612F91
:100C000062708F2D0E944312612F6170802F0E94AD
:100C1000431262E18B2D0E94960104C062E18B2D8C
:100C20000E94BA012A960FB6F894DEBF0FBECDBF60
:100C3000DF91CF911F910F91FF90EF90DF90CF90B8
:100C4000BF90089525E042E06EE871E082E094E014
:100C50000E94AC0D4DE151E061E782E094E00E941A
:100C6000EC0E42E953E060EF82E094E00E94F40E63
:100C700048E151E06FEF82E094E00E94E40E40E032
:100C800051EE60E070E082E094E00E94581064EF62
:100C900071E082E094E00E94D60E0C94220182E082
:100CA00094E00E940C0E892B29F082E094E00E94CF
:100CB0001F0FF5CF0895CF92DF92EF92FF92F82E9B
:100CC000E62E61E00E940A1260E08E2D0E940A1258
:100CD00060E08F2D0E94431282E090E00E941F117D
:100CE00061E08F2D0E9443128AE090E00E941F1164
:100CF00060E08F2D0E94431220E53DE240E050E08D
:100D000061E08E2D0E94A212611571058105910589
:100D100059F00E94F61820E030E048E652E40E94C4
:100D200062186B017C0106C0C12CD12C8AE7E82E29
:100D300084E4F82E62E070E080E090E00E94F7101A
:100D400020E030E040E251E4C701B6010E9484197E
:100D50000E94CA18FF90EF90DF90CF900895CF9334
:100D6000DF93EC01188619861A861B868EE08C8725
:100D700082E1E8E0F1E0DE011D9601900D928A9596
:100D8000E1F784E7EAE1F1E0DE015F9601900D9280
:100D90008A95E1F70E94C810688779878A879B87C0
:100DA000DF91CF9108951F93CF93DF931F92CDB71B
:100DB000DEB7162F642F812F49830E945B0649817D
:100DC000643671058105910540F4642F812F0F90E1
:100DD000DF91CF911F910C945B060F90DF91CF9123
:100DE0001F9108958FE693E00C94AF06CF93DF93A5
:100DF000EC01862F6883498360E00E940A1260E05C
:100E000089810E940A1260E088810E94431260E09A
:100E10008981DF91CF910C94431261E0FC018181C3
:100E20000E940A1282E390E00C941F11CF93DF938B
:100E3000EC0161E089810E940A1282E390E00E9445
:100E40001F1160E088810E940A1282E390E00E94F4
:100E50001F1160E089810E940A1282E390E0DF9115
:100E6000CF910C941F110F931F93CF93DF93EC013D
:100E7000062F18E061E088810E940A1282E390E068
:100E80000E941F1100FF02C060E001C061E0898183
:100E90000E940A1282E390E00E941F1160E08881A4
:100EA0000E940A1282E390E00E941F1106951150E1
:100EB00009F761E088810E940A1260E089810E943E
:100EC0000A1282E390E00E941F1160E088810E9474
:100ED0000A1282E390E00E941F1189810E94791218
:100EE000182F811104C061E089810E940A1282E3F7
:100EF00090E00E941F1161E088810E940A1282E343
:100F000090E00E941F1181E0111101C080E0DF918B
:100F1000CF911F910F9108958F929F92BF92CF9280
:100F2000DF92EF92FF920F931F93CF93DF931F9265
:100F3000CDB7DEB74C017B01B42E29830E940D078B
:100F400060E4C4010E943307C4010E941607C40173
:100F50000E940D072981237060EC620FC401298370
:100F60000E94330787012981C22ED12CCE18DF08B9
:100F7000802F8E198B15B8F4C601800F911F019731
:100F800051F4F4018381F0E88F9FC0011124F8012E
:100F90006081682B02C0F8016081C4010E943307A0
:100FA0000F5F1F4FE5CFC4010E941607C4010E94C6
:100FB0000D07F40162816F706058C4010E9433070D
:100FC000C4010F90DF91CF911F910F91FF90EF908F
:100FD000DF90CF90BF909F908F900C941607AF92A8
:100FE000BF92CF92DF92EF92FF920F931F93CF9316
:100FF000DF9300D000D0CDB7DEB76C018B01198232
:101000001A821B821C82FE01349620E030E0A42E5E
:10101000B12C8AE0E82EF12CC501022E02C0959574
:1010200087950A94E2F780FF0AC0C801B7010E94C1
:10103000E719895F9D4FDC018C91808301C010828C
:10104000C801B7010E94E7198B012F5F3F4F31970D
:101050002430310509F720E044E0BE016F5F7F4F87
:10106000C6010E948C070F900F900F900F90DF9198
:10107000CF911F910F91FF90EF90DF90CF90BF9095
:10108000AF900895EF92FF920F93CF93DF9300D02C
:1010900000D01F92CDB7DEB77A01462F682FCE0160
:1010A00001962D830E94F6068FE08B832D812223EB
:1010B00019F081E08C8301C01C82402FB701CE0162
:1010C00001960E94EF070F900F900F900F900F90D6
:1010D000DF91CF910F91FF90EF9008950F930FE064
:1010E0000E9442080F9108953F924F925F926F9233
:1010F0007F928F929F92AF92BF92CF92DF92EF92A8
:10110000FF920F931F93CF93DF9300D000D01F92D5
:10111000CDB7DEB75C01562E19821A821B821C8263
:101120001D8261E0852D0E940A1260E0852D0E94DB
:10113000431262E170E080E090E00E94F71061E00D
:10114000852D0E94431288E290E00E941F1160E00A
:10115000852D0E940A1201E117E2852D0E94791265
:10116000892B31F401501109C1F78EEF9FEF72C046
:1011700001E117E2852D0E947912019721F40150B7
:101180001109C1F7F2CF08E210E0312C37E0432E0D
:1011900088248394912C21E1E22E27E2F22E852DE2
:1011A0000E947912892B29F481E0E81AF108B9F735
:1011B000DCCF0E94D4106B017C0191E1692E97E293
:1011C000792E852D0E947912019729F4E1E06E1A9B
:1011D0007108B9F7CACF0E94D4106C197D098E0925
:1011E0009F09693271058105910578F0E1E0F0E031
:1011F000EC0FFD1FE30DF11D2081C401042C01C083
:10120000880F0A94EAF7282B2083411004C03394F6
:1012100087E0482E01C04A940150110909F0BBCF64
:101220002981822F90E0F501918380833B81832F78
:1012300090E093838283230F8A81280F8C81280F6B
:1012400081E090E03D81321302C080E090E0919512
:10125000819591090F900F900F900F900F90DF9153
:10126000CF911F910F91FF90EF90DF90CF90BF90A3
:10127000AF909F908F907F906F905F904F903F9036
:101280000895BF92CF92DF92EF92FF920F931F9338
:10129000CF93DF93CDB7DEB72F970FB6F894DEBFAD
:1012A0000FBECDBFC22ED02E8A0120E0462F682F60
:1012B000CE0101960E94FC0B6C2DCE0101960E947E
:1012C000C00CB12C0D2D10E0015011098B2D90E0B8
:1012D0006701C80ED91E8017910744F4CE0101960C
:1012E0000E94040DF6018083B394F0CFCE010196E5
:1012F0000E94070DF6018083CE0101960E94910C99
:101300002F960FB6F894DEBF0FBECDBFDF91CF9101
:101310001F910F91FF90EF90DF90CF90BF900895B5
:10132000BF92CF92DF92EF92FF920F931F93CF93D2
:10133000DF93CDB7DEB72F970FB6F894DEBF0FBEA1
:10134000CDBFD22EB02E8A0120E0462F682FCE01CD
:1013500001960E94FC0B6D2DCE0101960E94AB0CF4
:101360001E2D67018C2D811B8B1540F4F6016191B8
:101370006F01CE0101960E94D60CF4CFCE010196EA
:101380000E94910C2F960FB6F894DEBF0FBECDBF12
:10139000DF91CF911F910F91FF90EF90DF90CF9051
:1013A000BF900895EF92FF920F931F93CF93DF9317
:1013B000CDB7DEB72F970FB6F894DEBF0FBECDBF07
:1013C000F22EE02E8A0120E0462F682FCE010196F2
:1013D0000E94FC0B6F2DCE0101960E94AB0C6E2D6E
:1013E000CE0101960E94D60CCE0101960E94910C6E
:1013F0006F2DCE0101960E94C00CCE0101960E9475
:10140000070DF82ECE0101960E94910C8F2D2F967C
:101410000FB6F894DEBF0FBECDBFDF91CF911F9105
:101420000F91FF90EF900895BF92CF92DF92EF92CD
:10143000FF920F931F93CF93DF93CDB7DEB72F9714
:101440000FB6F894DEBF0FBECDBFF22EB02E8A01CC
:1014500020E0462F682FCE0101960E94FC0B6F2DD5
:10146000CE0101960E94AB0C6B2DCE0101960E941D
:10147000D60CCE0101960E94910C6F2DCE010196E3
:101480000E94C00CB12CF12C81E0E81AF1088B2DE0
:1014900090E08601080F191F8E159F0544F4CE01B8
:1014A00001960E94040DF8018083B394F0CFCE0121
:1014B00001960E94070DF8018083CE0101960E94DB
:1014C000910C2F960FB6F894DEBF0FBECDBFDF9103
:1014D000CF911F910F91FF90EF90DF90CF90BF9031
:1014E0000895DF92EF92FF920F931F93CF93DF93B4
:1014F000CDB7DEB72F970FB6F894DEBF0FBECDBFC6
:10150000D22EF02E8A0120E0462F682FCE010196C0
:101510000E94FC0B6D2DCE0101960E94AB0C6F2D2D
:10152000CE0101960E94D60C6E2DCE0101960E942E
:10153000D60CCE0101960E94910C2F960FB6F8940E
:10154000DEBF0FBECDBFDF91CF911F910F91FF90F6
:10155000EF90DF900895DC011C962C931C976C9300
:1015600011964C931197262F30E0F901E050FF4F70
:10157000E4911296EC931297842F90E0FC01E050D6
:10158000FF4FE4911396EC931397F901EC5EFE4F35
:10159000249130E0220F331FF901EE5CFE4F45919C
:1015A000549115965C934E931497245C3E4FF90129
:1015B0002591349119963C932E931897FC01EC5E7B
:1015C000FE4F849190E0880F991FFC01EE5CFE4F66
:1015D0002591349117963C932E931697845C9E4FD9
:1015E000FC01859194911B969C938E931A97089574
:1015F0000F931F93CF93DF931F92CDB7DEB78C016C
:10160000DC0113968C911397662391F01A96ED9155
:10161000FC911B9790818095892380831C968C91E7
:101620001C978823B9F01696ED91FC9117970DC081
:10163000D8011696ED91FC9117979081809589239A
:1016400080831A96ED91FC911B97808113969C9153
:10165000892B8083D8011896ED91FC911997908180
:1016600012968C9112978095892380831C968C9179
:101670001C97882349F01496ED91FC911597808171
:1016800012969C91892B8083F801858596856983C4
:101690000E941F11D8011496ED91FC91159790812D
:1016A00012968C9112978095892380831896ED91DC
:1016B000FC911997808112969C911297892B8083B7
:1016C0001D968D919C911E970E941F116981662322
:1016D000A9F0D8011696ED91FC9117979081139679
:1016E0008C9113978095892380831A96ED91FC91B4
:1016F0001B97808113969C91892B8083F8018585A7
:1017000096850F90DF91CF911F910F910C941F112F
:101710001F93CF93DF93EC01EA85FB8590818B814A
:101720008095892380838C85882331F0EE81FF8129
:1017300080819B81892B8083E885F98590818A81CE
:101740008095892380838C85882331F0EC81FD810D
:1017500080819A81892B80838D859E850E941F11AF
:10176000E981F0E0EC5EFE4FE491F0E0EE0FFF1F48
:10177000E85DFE4FA591B4911C91EC81FD819081B3
:101780008A81809589238083E885F98580819A8183
:10179000892B80838D859E850E941F119B819123BB
:1017A00081E009F480E0DF91CF911F910895FC0161
:1017B000A285B3859C918381809589238C938485B0
:1017C000882331F0A681B7818C919381892B8C93EA
:1017D000A085B1859C918281809589238C93848595
:1017E000882331F0A481B5818C919281892B8C93CF
:1017F000858596850C941F110F931F93CF93DF93CC
:10180000EC011E870D870E94AB0ACE01DF91CF91BC
:101810001F910F910C94D70BCF93DF93EC01EA85C6
:10182000FB8590818B818095892380838C8588239B
:1018300031F0EE81FF8180819B81892B8083E88557
:10184000F98590818A818095892380838C8588237E
:1018500031F0EC81FD8180819A81892B80838D8597
:101860009E850E941F11EE81FF8190818B81809562
:1018700089238083EA85FB8580819B81892B8083F6
:101880008D859E850E941F11EC81FD8190818A814A
:10189000809589238083E885F98580819A81892BC9
:1018A00080838D859E85DF91CF910C941F11CF93FE
:1018B000DF93EC01EE81FF8190818B8180958923FC
:1018C0008083EA85FB8580819B81892B8083E885E5
:1018D000F98590818A818095892380838C858823EE
:1018E00031F0EC81FD8180819A81892B80838D8507
:1018F0009E850E941F11EA85FB8590818B818095D2
:10190000892380838C85882331F0EE81FF8180815B
:101910009B81892B80838D859E85DF91CF910C944F
:101920001F110E94570C80E008950F931F93CF93CF
:10193000DF93EC01062F18E0602F6078CE010E9443
:10194000F80A000F1150C1F7CE01DF91CF911F911E
:101950000F910C94880B0F931F93CF93DF931F92DB
:10196000CDB7DEB78C0169830E940C0C6981660FCC
:10197000C8010F90DF91CF911F910F910C94950C9E
:101980000F931F93CF93DF931F92CDB7DEB78C01D8
:1019900069830E940C0C6981660F6160C8010F9019
:1019A000DF91CF911F910F910C94950C0C94950C95
:1019B000EF92FF920F931F93CF93DF931F92CDB7B8
:1019C000DEB77C0108E010E0110FC70169830E94B7
:1019D000880B182B015069810111F6CF662311F095
:1019E00060E001C061E0C7010E94F80AF701858547
:1019F00096850E941F11812F0F90DF91CF911F912B
:101A00000F91FF90EF90089561E00C94D80C60E086
:101A10000C94D80C0F931F93CF93DF93EC018B01A1
:101A200088819981DC01ED91FC916F770190F081C3
:101A3000E02D099588819981DC01ED91FC91B80137
:101A4000660F672F661F770B6F770190F081E02D8F
:101A5000DF91CF911F910F910994DC018D919C91A1
:101A6000DC01ED91FC910190F081E02D60EF099493
:101A7000DC018D919C91DC01ED91FC910190F08154
:101A8000E02D67EF0994CF93DF93EC018881998172
:101A9000DC01ED91FC910190F081E02D69EF099559
:101AA00088819981DC01ED91FC910190F081E02D1C
:101AB00062E0099588819981DC01ED91FC910190AA
:101AC000F081E02D65E0DF91CF9109941F93CF93D2
:101AD000DF93EC018A818823D9F1CE010E942D0D7C
:101AE00088819981DC01ED91FC910190F081E02DDC
:101AF00069E7099588819981DC01ED91FC91AB81C1
:101B0000BC810190F081E02D6C91099588819981CB
:101B1000DC01ED91FC91AB81BC810190F081E02D65
:101B200011966C91099512E08A81181758F4EB818F
:101B3000FC81E10FF11D608170E0CE010E940A0D71
:101B40001F5FF2CFCE01DF91CF911F910C94380D22
:101B5000DF91CF911F910895CF92DF92EF92FF9284
:101B60000F931F93CF93DF938C01EB01C42ED22EE2
:101B700067E272E0CE010E949D1B7C016FE270E083
:101B8000CE010E94921B009739F46CE570E0CE0103
:101B90000E94921B009711F0EC012196E114F104D0
:101BA00051F4FE0101900020E9F7EC1BEF5FD80132
:101BB0001296EC9306C0EC1AFD0AE394E394F80144
:101BC000E282D80113968D919C9114970E94F41A89
:101BD000F801E280F12CC70101960E945C1AD8013D
:101BE00014969C938E931397FC01EE0DFF1D1082AB
:101BF000FC01C082D18212964C9150E042505109B2
:101C0000BE010296DF91CF911F910F91FF90EF904F
:101C1000DF90CF900C94831BDC018D919C91DC01B3
:101C2000ED91FC910480F581E02D0994EF92FF92F3
:101C30001F93CF93DF93FC012085213751F0293783
:101C400009F04FC0DF91CF911F91FF90EF900C945E
:101C5000660DFC01E756FF4F0190F081E02D3097B3
:101C600009F456C0DC01A757BF4F4D915C919A0112
:101C70002150310937FD9A01A90155954795142F37
:101C800020E030E061E0DC012117D8F4A60FB11D9F
:101C900018967C91DC01A20FB31F18967C931897BD
:101CA000C1E0C60F7C01EC0EF11CE701C885D0E84D
:101CB000CD9F7019112418967C936E5F2F5F3F4F54
:101CC000E2CFA40FB11D17962C911797222311F084
:101CD00018961C920896DF91CF911F91FF90EF907C
:101CE0000994FC01E556FF4F0190F081E02D3097FB
:101CF00079F0AC01475F5F4FDC01A757BF4F6C9194
:101D00006150822FDF91CF911F91FF90EF90099446
:101D1000DF91CF911F91FF90EF900895CF92DF92C6
:101D2000EF92FF920F931F93CF93DF9300D01F92F8
:101D3000CDB7DEB78C01F42E2A833B8369830E94E2
:101D40002D0DD8018D919C91DC01ED91FC910190BC
:101D5000F081E02D698109952A81E22EC22E3B8116
:101D6000D32E8C2D8E198F1540F4F60161916F01E1
:101D700070E0C8010E940A0DF4CFC8010F900F90C7
:101D80000F90DF91CF911F910F91FF90EF90DF9017
:101D9000CF900C94380D9A01FA0101900020E9F7D8
:101DA0003197E41BF50B4E2F0C948E0EAB0161E7BF
:101DB0000C94CB0EDC018D919C91DC01ED91FC919A
:101DC0000190F081E02D09946F3F29F4FC01E95660
:101DD000FF4F518340830895613729F4FC01E75692
:101DE000FF4F51834083089585569F4FFC015183D7
:101DF00040830895FC0115821682178280E090E0EE
:101E00000196DF018138910529F0A80FB91F1796B7
:101E10001C92F6CFA857BF4F1C9211961D921C9290
:101E2000E956FF4F0190F081E02D309709F00994B9
:101E30000895FC011282148213820C94FA0ECF933F
:101E4000DF93EC0188819981DC01ED91FC910680A2
:101E5000F781E02D0995FE01E857FF4F20812223ED
:101E6000B1F0873F910531F41082CE01DF91CF911F
:101E70000C94160EFE01E757FF4F20813181C20FEF
:101E8000D31F88872F5F3F4F31832083A9C02D81C7
:101E9000222309F464C0803891050CF060C09FEFE4
:101EA000920F9D83FE01E90FF11D8087911198C06B
:101EB0008E81882309F494C0803D09F442C048F41F
:101EC0008039F1F0803C09F048C0FE01E157FF4F36
:101ED0003BC0843F31F1853F41F1803EF1F5FE0189
:101EE000E557FF4F0190F081E02D3097B1F18885E3
:101EF000698570E0B0E88B9F600D711D11242BC0C7
:101F0000FE01E357FF4F0190F081E02D309729F15A
:101F10008885698570E090E8899F600D711D1124A6
:101F20001AC0FE01ED56FF4F03C0FE01EB56FF4FF6
:101F30000190F081E02D309781F0688570E089850F
:101F40000BC0FE01EF56FF4F0190F081E02D30975E
:101F500021F0688570E08F8109951E8241C0803F25
:101F600091052CF4282F2F702F83807F9927803F95
:101F7000910549F17CF4803C910509F124F4803904
:101F80009105D9F02DC0803D9105C9F0803E9105A5
:101F9000A1F026C0893F9105E9F03CF49C01245F43
:101FA00031092230310548F01BC08F3F9105C1F443
:101FB000CE01DF91CF910C94FA0E92E001C091E036
:101FC0009D838E830DC081E08083C757DF4F1982C8
:101FD000188206C082E094E0DF91CF910C94430D0B
:101FE000DF91CF9108958F929F92AF92BF92CF923F
:101FF000DF92EF92FF921F93CF93DF93EB014A01A1
:10200000690161E08DE00E940A1210E0EE24D7FC25
:10201000E094FE2CAA2497FCA094BA2C812F90E087
:102020008C179D0794F4C701B6010E94F71061E078
:102030008DE00E944312C501B4010E94F71060E0D8
:102040008DE00E9443121F5FE9CFDF91CF911F9176
:10205000FF90EF90DF90CF90BF90AF909F908F90C8
:102060000895CF93DF93EC0161E08DE00E940A12A6
:1020700022ED30E048E250E062E070E0CE010E94E4
:10208000F30F6AEF70E080E090E00E94F71022ED1D
:1020900030E048E250E065E070E0CE010E94F30FCE
:1020A0006DE770E080E090E0DF91CF910C94F71045
:1020B000CF93DF93EC0126E08EEA94E00E94A41314
:1020C0008EEA94E099838883CE010E943110CE017C
:1020D0000E94430DCE01DF91CF910C94660D82E0FA
:1020E00094E00C94190F0F9300E020E040E060E0D2
:1020F0008FE994E00E94E4140F9108951F920F92CB
:102100000FB60F9211242F933F938F939F93AF930A
:10211000BF938091A6049091A704A091A804B091C8
:10212000A9043091A50423E0230F2D3720F4019654
:10213000A11DB11D05C026E8230F0296A11DB11DEA
:102140002093A5048093A6049093A704A093A804C9
:10215000B093A9048091AA049091AB04A091AC041F
:10216000B091AD040196A11DB11D8093AA04909376
:10217000AB04A093AC04B093AD04BF91AF919F9119
:102180008F913F912F910F900FBE0F901F90189538
:102190002FB7F8946091A6047091A7048091A804C9
:1021A0009091A9042FBF08953FB7F8948091AA0495
:1021B0009091AB04A091AC04B091AD0426B5A89B5E
:1021C00005C02F3F19F00196A11DB11D3FBF662725
:1021D000782F892F9A2F620F711D811D911D42E06A
:1021E000660F771F881F991F4A95D1F70895CF92E0
:1021F000DF92EF92FF92CF93DF936B017C010E94FD
:10220000D410EB01C114D104E104F10489F00E945F
:1022100061180E94D4106C1B7D0B683E734090F3D4
:1022200081E0C81AD108E108F108C851DC4FEACFB3
:10223000DF91CF91FF90EF90DF90CF9008958230A3
:10224000910538F0880F991F880F991F05970197FE
:10225000F1F70895789484B5826084BD84B5816077
:1022600084BD85B5826085BD85B5816085BDEEE69E
:10227000F0E0808181608083E1E8F0E0108280817D
:1022800082608083808181608083E0E8F0E08081EB
:1022900081608083E1EBF0E0808184608083E0EB0B
:1022A000F0E0808181608083EAE7F0E080818460F3
:1022B000808380818260808380818160808380814F
:1022C000806880831092C10008958E3008F08E508F
:1022D00087702091060190E4299F90011124822BA0
:1022E00080937C0080917A00806480937A00809152
:1022F0007A0086FDFCCF809178002091790090E0F3
:10230000922B08951F93CF93DF93182FEB0161E079
:102310000E940A12209711F460E004C0CF3FD1055B
:1023200039F461E0812FDF91CF911F910C9443121A
:10233000E12FF0E0E451FF4FE491E330F9F048F48D
:10234000E130B9F0E230A1F584B5806284BDC8BD4A
:1023500034C0E730E9F0E83019F1E43049F5809114
:102360008000806280938000D0938B00C0938A00AD
:1023700024C084B5806884BDC7BD1FC08091800023
:10238000806880938000D0938900C093880015C036
:102390008091B00080688093B000C093B3000DC0FE
:1023A0008091B00080628093B000C093B40005C0FB
:1023B000C038D1050CF0B5CFAFCFDF91CF911F91D1
:1023C0000895833081F028F4813099F08230A1F0B3
:1023D00008958730A9F08830B9F08430D1F4809125
:1023E00080008F7D03C0809180008F778093800074
:1023F000089584B58F7702C084B58F7D84BD08951C
:102400008091B0008F7703C08091B0008F7D809362
:10241000B0000895CF93DF9390E0FC01E050FF4FB0
:102420002491FC01EC5EFE4F8491882349F190E0F9
:10243000880F991FFC01E45CFE4FA591B4918E5C5E
:102440009E4FFC01C591D4919FB7611108C0F894CB
:102450008C91209582238C93888182230AC06230DC
:1024600051F4F8948C91322F309583238C9388818A
:10247000822B888304C0F8948C91822B8C939FBF0D
:10248000DF91CF9108950F931F93CF93DF931F9206
:10249000CDB7DEB7282F30E0F901E451FF4F84912A
:1024A000F901E050FF4F1491F901EC5EFE4F0491E9
:1024B0000023C9F0882321F069830E94E11169811A
:1024C000E02FF0E0EE0FFF1FEE5CFE4FA591B49100
:1024D0009FB7F8948C91611103C01095812301C0BE
:1024E000812B8C939FBF0F90DF91CF911F910F9104
:1024F0000895CF93DF93282F30E0F901E451FF4F87
:102500008491F901E050FF4FD491F901EC5EFE4F48
:10251000C491CC2391F081110E94E111EC2FF0E0E5
:10252000EE0FFF1FE85DFE4FA591B4912C912D2376
:1025300081E090E021F480E002C080E090E0DF9153
:10254000CF9108950F931F93762F90E0FC01E050F8
:10255000FF4F6491FC01EC5EFE4FE4917111762F08
:10256000F0E0EE0FFF1FE85DFE4F85919491890129
:102570009A013F70472F0E94D300611571058105B4
:10258000910531F06F5F7F4F8F4F9F4F9F7003C05A
:1025900060E070E0CB011F910F910895FC01818DE7
:1025A000928D891B90E00895FC01918D828D981782
:1025B00031F0828DE80FF11D858D90E008958FEF49
:1025C0009FEF0895FC01918D828D981759F0828DAF
:1025D000DF01A80FB11D5D968C91928D9F5F928F48
:1025E00090E008958FEF9FEF08958DE594E1892B9A
:1025F00049F080E090E0892B29F00E945D14811160
:102600000C9400000895FC01848DDF01A80FB11D1A
:10261000A35EBE4F2C91848D8F5F848FA689B7896E
:102620002C93A089B1898C9180648C93938D848D37
:10263000981306C00288F389E02D80818F7D808306
:102640000895CF93DF93EC01888D8823C9F0EA8940
:10265000FB89808185FD05C0A889B9898C9186FD9B
:102660000FC00FB607FCF5CF808185FFF2CFA88998
:10267000B9898C9185FFEDCFCE010E940313E7CF7E
:10268000DF91CF910895CF92DF92FF920F931F9326
:10269000CF93DF931F92CDB7DEB76C0181E0D601F7
:1026A00058968C9358975B969C915B975C968C910F
:1026B0005C97981307C05096ED91FC9151978081DB
:1026C00085FD2AC0F601038D0F5FF02EF601848D83
:1026D000F81211C00FB607FCF9CFD6015096ED9154
:1026E000FC915197808185FFF1CFC60169830E94DB
:1026F00003136981EBCF838DE80FF11DE35EFE4F7D
:102700006083D6015B960C935B975296ED91FC919A
:102710005397808180620CC0D6015696ED91FC9152
:10272000579760835096ED91FC915197808180641A
:10273000808381E090E00F90DF91CF911F910F9106
:10274000FF90DF90CF900895BF92CF92DF92EF92EB
:10275000FF92CF93DF93EC016A017B01B22EE889EF
:10276000F98982E08083411581EE58076105710582
:10277000A1F060E079E08DE390E0A70196010E946E
:10278000FB19215031094109510956954795379553
:102790002795211580E1380798F0E889F98910829A
:1027A00060E874E88EE190E0A70196010E94FB19B1
:1027B000215031094109510956954795379527957B
:1027C000EC85FD853083EE85FF852083188EEC89AE
:1027D000FD89B082EA89FB89808180618083EA89F2
:1027E000FB89808188608083EA89FB898081806899
:1027F0008083EA89FB8980818F7D8083DF91CF91FF
:10280000FF90EF90DF90CF90BF9008951F920F92AE
:102810000FB60F9211242F938F939F93EF93FF93F3
:10282000E091BE04F091BF048081E091C404F09176
:10283000C50482FD11C090818091C7048F5F2091F3
:10284000C804821751F0E091C704F0E0E255FB4F55
:10285000958F8093C70401C08081FF91EF919F9174
:102860008F912F910F900FBE0F901F9018951F9270
:102870000F920FB60F9211242F933F934F935F93B4
:102880006F937F938F939F93AF93BF93EF93FF9338
:102890008EEA94E00E940313FF91EF91BF91AF91F4
:1028A0009F918F917F916F915F914F913F912F9168
:1028B0000F900FBE0F901F9018958EEA94E00E9423
:1028C000CE1221E0892B09F420E0822F0895109286
:1028D000B1041092B00488EE93E0A0E0B0E08093E1
:1028E000B2049093B304A093B404B093B50480E30E
:1028F00092E09093AF048093AE0485EC90E09093C7
:10290000BB048093BA0484EC90E09093BD04809360
:10291000BC0480EC90E09093BF048093BE0481ECF3
:1029200090E09093C1048093C00482EC90E0909377
:10293000C3048093C20486EC90E09093C504809316
:10294000C4041092C7041092C8041092C9041092D3
:10295000CA040895AF92BF92CF92DF92EF92FF9296
:102960000F931F93CF93DF936C017B01C0E0D0E006
:1029700000E010E0F601EC0FFD1F4AE050E062813C
:10298000C7010E94AA155C016EE2C7010E943D15B5
:102990008A0D9B1D080F191F2196C330D10551F7D1
:1029A0004AE050E0F6016581C7010E94AA15800F38
:1029B000911FDF91CF911F910F91FF90EF90DF90CA
:1029C000CF90BF90AF9008950F93FC0180E492E008
:1029D0009183808362834383248305830F910895C9
:1029E00080E492E09093CC068093CB061092CD06C3
:1029F0001092CE061092CF061092D0060895CF9274
:102A0000DF92EF92FF920F931F93CF93DF937C019E
:102A10006A01EB0100E010E00C151D0571F06991F1
:102A2000D701ED91FC910190F081E02DC70109954E
:102A3000892B19F00F5F1F4FEFCFC801DF91CF91A6
:102A40001F910F91FF90EF90DF90CF900895611547
:102A5000710581F0DB010D900020E9F7AD014150D7
:102A60005109461B570BDC01ED91FC910280F3816B
:102A7000E02D099480E090E00895DC01ED91FC9157
:102A80000190F081E02D09948F929F92AF92BF92B6
:102A9000CF92DF92EF92FF920F931F93CF93DF932A
:102AA000CDB7DEB7A1970FB6F894DEBF0FBECDBF8E
:102AB0007C01C42EE52FCB01D22E19A221E02D15C9
:102AC00010F02AE0D22E8E010F5D1F4F8D2C912C1D
:102AD000A12CB12C6C2D7E2FA50194010E94FB1915
:102AE0008C2DD29E80191124015011098A3014F4C2
:102AF000805D01C0895CF8018083211531054105A5
:102B0000510521F0C22EE32FCA01E4CFB801C7015D
:102B10000E942715A1960FB6F894DEBF0FBECDBF59
:102B2000DF91CF911F910F91FF90EF90DF90CF90A9
:102B3000BF90AF909F908F9008952115310541F47B
:102B4000DC01ED91FC910190F081E02D642F09945E
:102B50000C9444159A01462F50E060E070E00C940C
:102B60009D153F924F925F926F927F928F929F92AC
:102B7000AF92BF92CF92DF92EF92FF920F931F938B
:102B8000CF93DF9300D000D0CDB7DEB78B01290102
:102B90003A0190910701981721F09F3F09F0DAC19F
:102BA00004C0E6E4F1E0349081C080930701E6E4DC
:102BB000F1E0E491EF3F09F4CDC1E13031F1E230D1
:102BC00009F44BC0E11171C014BC15BC94B59260FE
:102BD00094BD95B5916095BD282F30E0F901EC5E6C
:102BE000FE4FE491F0E0EE0FFF1FEE5CFE4F4591CB
:102BF00054915093E1064093E006F901E050FF4FF5
:102C000024912093DF06312C53C010928000109243
:102C10008100909181009860909381009091810053
:102C2000916090938100282F30E0F901EC5EFE4F17
:102C3000E491F0E0EE0FFF1FEE5CFE4F45915491E2
:102C40005093DA064093D906F901E050FF4F2491E2
:102C50002093D806332433942BC01092B0001092E6
:102C6000B1009091B00092609093B0009091B1004B
:102C700091609093B100282F30E0F901EC5EFE4F97
:102C8000E491F0E0EE0FFF1FEE5CFE4F4591549192
:102C90005093D3064093D206F901E050FF4F2491A0
:102CA0002093D10652E0352E03C03E2E37FC52C190
:102CB00061E00E940A124801A12CB12C832D8D7F66
:102CC00009F0C7C060E072E18AE790E0A5019401D5
:102CD0000E941D1A29833A834B835C8369017A0120
:102CE00081E0C81AD108E108F1089FEFC916D104A4
:102CF000E104F10409F008F49AC060E472E48FE0A2
:102D000090E0A50194010E941D1A69017A01E1E099
:102D1000CE1AD108E108F108F2E03F1219C08FEF96
:102D2000C816D104E104F10409F008F48AC060E98E
:102D300070ED83E090E0A50194010E941D1A6901E5
:102D40007A0191E0C91AD108E108F10883E001C0D5
:102D500082E0EFEFCE16D104E104F10409F008F4AB
:102D600067C068E478EE81E090E0A50194010E94DC
:102D70001D1A69017A01F1E0CF1AD108E108F108C2
:102D80003320E1F082E038121BC09FEFC916D10456
:102D9000E104F10409F008F4DBC064E274EF80E0C0
:102DA00090E0A50194010E941D1A69017A01E1E0F9
:102DB000CE1AD108E108F10885E003C083E001C024
:102DC00084E0FFEFCF16D104E104F10489F180F132
:102DD00062E17AE780E090E0A50194010E941D1A6B
:102DE00069017A0181E0C81AD108E108F1083110BF
:102DF00002C084E001C086E09FEFC916D104E1045F
:102E0000F104B1F0A8F0C980DA80EB80FC809AE090
:102E1000F594E794D794C7949A95D1F7E1E0CE1A48
:102E2000D108E108F108332031F087E00BC081E0E0
:102E3000332011F007C085E095B5987F982B95BD9C
:102E400038C082E09091B100987F982B9093B100A8
:102E500030C060E072E18AE790E0A50194010E9431
:102E60001D1A69017A01F1E0CF1AD108E108F108D1
:102E7000C114D10481E0E806F10488F068E478EE3A
:102E800081E090E0A50194010E941D1A69017A0178
:102E900091E0C91AD108E108F10893E001C091E07E
:102EA000E1E03E1206C080918100887F892B8093EB
:102EB0008100411451046104710471F0D801AA0F1A
:102EC000BB1FA30192010E94421A28EE33E040E0AA
:102ED00050E00E94FB1903C02FEF3FEFA901F1E082
:102EE0003F16A1F082E0381619F1311033C0C7BC8B
:102EF0002093E2063093E3064093E4065093E50600
:102F000080916E00826080936E0024C0D092890010
:102F1000C09288002093DB063093DC064093DD06E8
:102F20005093DE0680916F00826080936F0012C024
:102F3000C092B3002093D4063093D5064093D606B2
:102F40005093D7068091700082608093700002C019
:102F500084E078CF0F900F900F900F90DF91CF917A
:102F60001F910F91FF90EF90DF90CF90BF90AF90A7
:102F70009F908F907F906F905F904F903F900895BB
:102F8000813039F018F0823051F0089510926E00BF
:102F9000089580916F008D7F80936F0008958091D8
:102FA00070008D7F8093700081E08093B0008091ED
:102FB000B100887F84608093B1001092B3000895BF
:102FC000CF93C82F809107018C1307C0E6E4F1E08E
:102FD00084919FEF9093070101C08FEF0E94C0176B
:102FE00060E08C2FCF910C9443121F920F920FB67A
:102FF0000F9211242F933F934F935F936F937F937F
:103000008F939F93AF93BF93EF93FF938091D406D9
:103010009091D506A091D606B091D706892B8A2B20
:103020008B2B51F19091D106E091D206F091D3060D
:103030008081892780838091D4069091D506A091C4
:10304000D606B091D706181619061A061B06C4F440
:103050008091D4069091D506A091D606B091D7065E
:103060000197A109B1098093D4069093D506A09346
:10307000D606B093D70604C0809107010E94E017DE
:10308000FF91EF91BF91AF919F918F917F916F9140
:103090005F914F913F912F910F900FBE0F901F9016
:1030A000189508950E942A110E9451180E94220624
:1030B000C5EFD2E10E944F062097E1F30E94F5127E
:1030C000F9CF08950CD0E6C0DED040F0D5D030F076
:1030D00021F45F3F19F0C7C0511110C1CAC0EBD035
:1030E00098F39923C9F35523B1F3951B550BBB27CF
:1030F000AA2762177307840738F09F5F5F4F220F7C
:10310000331F441FAA1FA9F333D00E2E3AF0E0E874
:1031100030D091505040E695001CCAF729D0FE2FC0
:1031200027D0660F771F881FBB1F26173707480752
:10313000AB07B0E809F0BB0B802DBF01FF27935808
:103140005F4F2AF09E3F510568F08DC0D7C05F3FAA
:10315000ECF3983EDCF3869577956795B795F795F0
:103160009F5FC9F7880F911D9695879597F90895E8
:10317000E1E0660F771F881FBB1F62177307840784
:10318000BA0720F0621B730B840BBA0BEE1F88F793
:10319000E095089598D088F09F5790F0B92F99271F
:1031A000B751A0F0D1F0660F771F881F991F1AF052
:1031B000BA95C9F712C0B13081F09FD0B1E008953F
:1031C0009CC0672F782F8827B85F39F0B93FCCF3C0
:1031D000869577956795B395D9F73EF49095809548
:1031E000709561957F4F8F4F9F4F0895E89409C068
:1031F00097FB3EF490958095709561957F4F8F4F2A
:103200009F4F9923A9F0F92F96E9BB279395F6953F
:10321000879577956795B795F111F8CFFAF4BB0FBD
:1032200011F460FF1BC06F5F7F4F8F4F9F4F16C021
:10323000882311F096E911C0772321F09EE8872FAB
:10324000762F05C0662371F096E8862F70E060E067
:103250002AF09A95660F771F881FDAF7880F9695E0
:10326000879597F9089597F99F6780E870E060E087
:1032700008959FEF80EC089500240A94161617060F
:1032800018060906089500240A9412161306140657
:1032900005060895092E0394000C11F4882352F0BA
:1032A000BB0F40F4BF2B11F460FF04C06F5F7F4F72
:1032B0008F4F9F4F089557FD9058440F551F59F059
:1032C0005F3F71F04795880F97FB991F61F09F3F13
:1032D00079F087950895121613061406551FF2CF3C
:1032E0004695F1DF08C0161617061806991FF1CF8C
:1032F00086957105610508940895E894BB276627B3
:103300007727CB0197F908950BD0C4CFB5DF28F00C
:10331000BADF18F0952309F0A6CFABCF1124EECF7A
:10332000CADFA0F3959FD1F3950F50E0551F629F20
:10333000F001729FBB27F00DB11D639FAA27F00D0E
:10334000B11DAA1F649F6627B00DA11D661F829F35
:103350002227B00DA11D621F739FB00DA11D621F1A
:10336000839FA00D611D221F749F3327A00D611D37
:10337000231F849F600D211D822F762F6A2F112419
:103380009F5750408AF0E1F088234AF0EE0FFF1F6C
:10339000BB1F661F771F881F91505040A9F79E3FA3
:1033A000510570F060CFAACF5F3FECF3983EDCF39D
:1033B000869577956795B795F795E7959F5FC1F7E0
:1033C000FE2B880F911D9695879597F90895AA1B56
:1033D000BB1B51E107C0AA1FBB1FA617B70710F000
:1033E000A61BB70B881F991F5A95A9F78095909532
:1033F000BC01CD010895A1E21A2EAA1BBB1BFD0141
:103400000DC0AA1FBB1FEE1FFF1FA217B307E407C3
:10341000F50720F0A21BB30BE40BF50B661F771F1B
:10342000881F991F1A9469F76095709580959095FB
:103430009B01AC01BD01CF010895052E97FB1EF441
:1034400000940E94341A57FD07D00E94FB1907FC14
:1034500003D04EF40C94341A509540953095219534
:103460003F4F4F4F5F4F08959095809570956195B0
:103470007F4F8F4F9F4F0895EE0FFF1F0590F491E0
:10348000E02D09940E944D1AA59F900DB49F900DB8
:10349000A49F800D911D11240895A29FB001B39F98
:1034A000C001A39F700D811D1124911DB29F700D4D
:1034B000811D1124911D0895CF93DF9382309105D2
:1034C00010F482E090E0E091E806F091E90620E057
:1034D00030E0A0E0B0E0309739F1408151814817E9
:1034E0005907B8F04817590771F4828193811097F2
:1034F00029F013969C938E9312972CC09093E90613
:103500008093E80627C02115310531F04217530793
:1035100018F0A901DB0101C0EF019A01BD01DF0133
:103520000280F381E02DD7CF21153105F9F0281B5A
:10353000390B2430310580F48A819B816115710536
:1035400021F0FB019383828304C09093E90680936A
:10355000E806FE01329644C0FE01E20FF31F81939C
:10356000919322503109398328833AC02091E6068D
:103570003091E706232B41F42091020130910301A1
:103580003093E7062093E606209100013091010177
:103590002115310541F42DB73EB7409104015091FA
:1035A0000501241B350BE091E606F091E706E217D2
:1035B000F307A0F42E1B3F0B2817390778F0AC0156
:1035C0004E5F5F4F2417350748F04E0F5F1F509333
:1035D000E7064093E6068193919302C0E0E0F0E0B5
:1035E000CF01DF91CF910895CF93DF93009709F436
:1035F00087C0FC01329713821282C091E806D091F5
:10360000E906209781F420813181280F391F8091AC
:10361000E6069091E7068217930779F5F093E7069F
:10362000E093E6066DC0DE0120E030E0AE17BF0794
:1036300050F412964D915C9113979D0141155105DF
:1036400009F1DA01F3CFB383A28340815181840F62
:10365000951F8A179B0771F48D919C911197840F88
:10366000951F02969183808312968D919C9113975A
:10367000938382832115310529F4F093E906E093C1
:10368000E8063EC0D9011396FC93EE9312974D9134
:103690005D91A40FB51FEA17FB0779F48081918132
:1036A000840F951F0296D90111969C938E93828167
:1036B000938113969C938E931297E0E0F0E08A81B9
:1036C0009B81009719F0FE01EC01F9CFCE01029623
:1036D00028813981820F931F2091E6063091E706F9
:1036E0002817390769F4309729F41092E9061092E7
:1036F000E80602C013821282D093E706C093E60662
:10370000DF91CF910895FB01DC014150504048F01A
:1037100001900D920020C9F701C01D924150504008
:10372000E0F70895FC0181E090E00190061609F4AD
:10373000CF010020D1F701970895FB015191552346
:10374000A9F0BF01DC014D9145174111E1F759F492
:10375000CD010190002049F04D9140154111C9F370
:10376000FB014111EFCF81E090E001970895F894BB
:02377000FFCF89
:103772000000EA06800001FF0002030104050207BF
:1037820006030809040C0A050D0BF6A8B542CD4C38
:1037920085428FC2454233331442713DE041333397
:1037A200AB410AD78341D7A34C41CFF71F41C52074
:1037B200FC40F628C8400000A0409CC4804075939D
:1037C2005040E7FB2940F8530B40CBA1E53F04569C
:1037D200BE3FC9769E3FA69B843FBB275F3FB68410
:1037E2003C3FE5F21F3F5E4B083F4C37E93E5E4BE4
:1037F200C83E7AA5AC3ECF66953E8AB0813E2F6820
:103802006F6D652F7368656E67686F6E672F507294
:103812006F6A656374732F7363726174636870692E
:103822002F41726475696E6F53637261746368507D
:10383200692F4669726D77617265732F5363726186
:1038420074636850694669726D776172652F666943
:10385200726D776172652F6669726D776172652E1E
:10386200696E6F0041726475696E6F207374617264
:103872007465642E2E2E003F065B4F666D7D077FBA
:103882006F777C394779710000000000000000006A
:10389200000000000000002E6370700000000000B5
:1038A2004313FF14CE12E212D412211300000000BF
:0238B200AA1456
:00000001FF
